{
  "transactions": [
    {
      "hash": "0xee2fcbc7d528170741d5b170163acce4ce44926d6abc737bfa5edea8330b1ced",
      "transactionType": "CALL",
      "contractName": "LinkToken",
      "contractAddress": "0x779877a7b0d9e8603169ddbd7836e478b4624789",
      "function": "transferAndCall(address,uint256,bytes)",
      "arguments": [
        "0x9DdfaCa8183c41ad55329BdeeD9F6A8d53168B1B",
        "2000000000000000000",
        "0x26c6ef9d5fdda53a3450d6b3fafc24bcb468b67852a999584d007497cb367d76"
      ],
      "transaction": {
        "from": "0x1a6ec6cc2306804f25d95d0110e04cafd67de171",
        "to": "0x779877a7b0d9e8603169ddbd7836e478b4624789",
        "gas": "0x1603d",
        "value": "0x0",
        "input": "0x4000aea00000000000000000000000009ddfaca8183c41ad55329bdeed9f6a8d53168b1b0000000000000000000000000000000000000000000000001bc16d674ec800000000000000000000000000000000000000000000000000000000000000000060000000000000000000000000000000000000000000000000000000000000002026c6ef9d5fdda53a3450d6b3fafc24bcb468b67852a999584d007497cb367d76",
        "nonce": "0x5",
        "chainId": "0xaa36a7"
      },
      "additionalContracts": [],
      "isFixedGasLimit": false
    }
  ],
  "receipts": [
    {
      "status": "0x1",
      "cumulativeGasUsed": "0x70c87d",
      "logs": [
        {
          "address": "0x779877a7b0d9e8603169ddbd7836e478b4624789",
          "topics": [
            "0xddf252ad1be2c89b69c2b068fc378daa952ba7f163c4a11628f55a4df523b3ef",
            "0x0000000000000000000000001a6ec6cc2306804f25d95d0110e04cafd67de171",
            "0x0000000000000000000000009ddfaca8183c41ad55329bdeed9f6a8d53168b1b"
          ],
          "data": "0x0000000000000000000000000000000000000000000000001bc16d674ec80000",
          "blockHash": "0xd82f93e2883b3da21da9064d0157048b81fb872d9e25ef73d37cf111cf65802a",
          "blockNumber": "0x912a23",
          "blockTimestamp": "0x6901a31c",
          "transactionHash": "0xee2fcbc7d528170741d5b170163acce4ce44926d6abc737bfa5edea8330b1ced",
          "transactionIndex": "0x58",
          "logIndex": "0x6e",
          "removed": false
        },
        {
          "address": "0x779877a7b0d9e8603169ddbd7836e478b4624789",
          "topics": [
            "0xe19260aff97b920c7df27010903aeb9c8d2be5d310a2c67824cf3f15396e4c16",
            "0x0000000000000000000000001a6ec6cc2306804f25d95d0110e04cafd67de171",
            "0x0000000000000000000000009ddfaca8183c41ad55329bdeed9f6a8d53168b1b"
          ],
          "data": "0x0000000000000000000000000000000000000000000000001bc16d674ec800000000000000000000000000000000000000000000000000000000000000000040000000000000000000000000000000000000000000000000000000000000002026c6ef9d5fdda53a3450d6b3fafc24bcb468b67852a999584d007497cb367d76",
          "blockHash": "0xd82f93e2883b3da21da9064d0157048b81fb872d9e25ef73d37cf111cf65802a",
          "blockNumber": "0x912a23",
          "blockTimestamp": "0x6901a31c",
          "transactionHash": "0xee2fcbc7d528170741d5b170163acce4ce44926d6abc737bfa5edea8330b1ced",
          "transactionIndex": "0x58",
          "logIndex": "0x6f",
          "removed": false
        },
        {
          "address": "0x9ddfaca8183c41ad55329bdeed9f6a8d53168b1b",
          "topics": [
            "0x1ced9348ff549fceab2ac57cd3a9de38edaaab274b725ee82c23e8fc8c4eec7a",
            "0x26c6ef9d5fdda53a3450d6b3fafc24bcb468b67852a999584d007497cb367d76"
          ],
          "data": "0x0000000000000000000000000000000000000000000000004563918244f400000000000000000000000000000000000000000000000000006124fee993bc0000",
          "blockHash": "0xd82f93e2883b3da21da9064d0157048b81fb872d9e25ef73d37cf111cf65802a",
          "blockNumber": "0x912a23",
          "blockTimestamp": "0x6901a31c",
          "transactionHash": "0xee2fcbc7d528170741d5b170163acce4ce44926d6abc737bfa5edea8330b1ced",
          "transactionIndex": "0x58",
          "logIndex": "0x70",
          "removed": false
        }
      ],
      "logsBloom": "0x00000004000000000000000000000000000000000020000000000800020000000000000000000000000000000000000000000000000000000000000000100000000000000000000000000008000000000000000000008000000022000020000008000000000000000000000000000000000000000000000000800010000040000000000000000000000000010000800000000020000000000000000000000000000000000000008000000000010000000000000000000000000004000000000000000002000000000000000000000000000000000000000100000000000000000010000000000000800000000000000000000000000000000000000000000000",
      "type": "0x2",
      "transactionHash": "0xee2fcbc7d528170741d5b170163acce4ce44926d6abc737bfa5edea8330b1ced",
      "transactionIndex": "0x58",
      "blockHash": "0xd82f93e2883b3da21da9064d0157048b81fb872d9e25ef73d37cf111cf65802a",
      "blockNumber": "0x912a23",
      "gasUsed": "0xf0d9",
      "effectiveGasPrice": "0xf4240",
      "from": "0x1a6ec6cc2306804f25d95d0110e04cafd67de171",
      "to": "0x779877a7b0d9e8603169ddbd7836e478b4624789",
      "contractAddress": null
    }
  ],
  "libraries": [],
  "pending": [],
  "returns": {},
  "timestamp": 1761714975770,
  "chain": 11155111,
  "commit": "a251fdf"
}